{
  "contractName": "EtherWheel",
  "abi": [
    {
      "constant": true,
      "inputs": [
        {
          "name": "",
          "type": "bytes32"
        }
      ],
      "name": "betsByQueryId",
      "outputs": [
        {
          "name": "better",
          "type": "address"
        },
        {
          "name": "status",
          "type": "string"
        },
        {
          "name": "queryId",
          "type": "bytes32"
        },
        {
          "name": "betAmount",
          "type": "uint256"
        },
        {
          "name": "betType",
          "type": "string"
        }
      ],
      "payable": false,
      "stateMutability": "view",
      "type": "function"
    },
    {
      "constant": true,
      "inputs": [
        {
          "name": "",
          "type": "address"
        },
        {
          "name": "",
          "type": "uint256"
        }
      ],
      "name": "querysByAccount",
      "outputs": [
        {
          "name": "",
          "type": "bytes32"
        }
      ],
      "payable": false,
      "stateMutability": "view",
      "type": "function"
    },
    {
      "constant": true,
      "inputs": [
        {
          "name": "",
          "type": "address"
        },
        {
          "name": "",
          "type": "uint256"
        }
      ],
      "name": "betsByAccount",
      "outputs": [
        {
          "name": "better",
          "type": "address"
        },
        {
          "name": "status",
          "type": "string"
        },
        {
          "name": "queryId",
          "type": "bytes32"
        },
        {
          "name": "betAmount",
          "type": "uint256"
        },
        {
          "name": "betType",
          "type": "string"
        }
      ],
      "payable": false,
      "stateMutability": "view",
      "type": "function"
    },
    {
      "constant": true,
      "inputs": [
        {
          "name": "",
          "type": "bytes32"
        }
      ],
      "name": "randomNumbers",
      "outputs": [
        {
          "name": "",
          "type": "uint256"
        }
      ],
      "payable": false,
      "stateMutability": "view",
      "type": "function"
    },
    {
      "inputs": [],
      "payable": false,
      "stateMutability": "nonpayable",
      "type": "constructor"
    },
    {
      "anonymous": false,
      "inputs": [
        {
          "indexed": false,
          "name": "",
          "type": "bytes"
        }
      ],
      "name": "newRandomNumber_bytes",
      "type": "event"
    },
    {
      "anonymous": false,
      "inputs": [
        {
          "indexed": false,
          "name": "",
          "type": "uint256"
        }
      ],
      "name": "newRandomNumber_uint",
      "type": "event"
    },
    {
      "constant": false,
      "inputs": [
        {
          "name": "myid",
          "type": "bytes32"
        },
        {
          "name": "result",
          "type": "string"
        }
      ],
      "name": "__callback",
      "outputs": [],
      "payable": false,
      "stateMutability": "nonpayable",
      "type": "function"
    },
    {
      "constant": false,
      "inputs": [
        {
          "name": "_queryId",
          "type": "bytes32"
        },
        {
          "name": "_result",
          "type": "string"
        },
        {
          "name": "_proof",
          "type": "bytes"
        }
      ],
      "name": "__callback",
      "outputs": [],
      "payable": false,
      "stateMutability": "nonpayable",
      "type": "function"
    },
    {
      "constant": false,
      "inputs": [
        {
          "name": "_betType",
          "type": "string"
        }
      ],
      "name": "placeBet",
      "outputs": [],
      "payable": true,
      "stateMutability": "payable",
      "type": "function"
    },
    {
      "constant": true,
      "inputs": [],
      "name": "getBalance",
      "outputs": [
        {
          "name": "",
          "type": "uint256"
        }
      ],
      "payable": false,
      "stateMutability": "view",
      "type": "function"
    }
  ],
  "bytecode": "0x60806040523480156200001157600080fd5b506200004f60307f01000000000000000000000000000000000000000000000000000000000000000262000055640100000000026401000000009004565b62000a59565b60008060009054906101000a900473ffffffffffffffffffffffffffffffffffffffff1673ffffffffffffffffffffffffffffffffffffffff161480620000d657506000620000d46000809054906101000a900473ffffffffffffffffffffffffffffffffffffffff1662000409640100000000026401000000009004565b145b15620000f957620000f7600062000414640100000000026401000000009004565b505b6000809054906101000a900473ffffffffffffffffffffffffffffffffffffffff1673ffffffffffffffffffffffffffffffffffffffff166338cc48316040518163ffffffff167c0100000000000000000000000000000000000000000000000000000000028152600401602060405180830381600087803b1580156200017f57600080fd5b505af115801562000194573d6000803e3d6000fd5b505050506040513d6020811015620001ab57600080fd5b810190808051906020019092919050505073ffffffffffffffffffffffffffffffffffffffff16600160009054906101000a900473ffffffffffffffffffffffffffffffffffffffff1673ffffffffffffffffffffffffffffffffffffffff1614151562000317576000809054906101000a900473ffffffffffffffffffffffffffffffffffffffff1673ffffffffffffffffffffffffffffffffffffffff166338cc48316040518163ffffffff167c0100000000000000000000000000000000000000000000000000000000028152600401602060405180830381600087803b1580156200029957600080fd5b505af1158015620002ae573d6000803e3d6000fd5b505050506040513d6020811015620002c557600080fd5b8101908080519060200190929190505050600160006101000a81548173ffffffffffffffffffffffffffffffffffffffff021916908373ffffffffffffffffffffffffffffffffffffffff1602179055505b600160009054906101000a900473ffffffffffffffffffffffffffffffffffffffff1673ffffffffffffffffffffffffffffffffffffffff1663688dcfd7826040518263ffffffff167c010000000000000000000000000000000000000000000000000000000002815260040180827effffffffffffffffffffffffffffffffffffffffffffffffffffffffffffff19167effffffffffffffffffffffffffffffffffffffffffffffffffffffffffffff19168152602001915050600060405180830381600087803b158015620003ed57600080fd5b505af115801562000402573d6000803e3d6000fd5b5050505050565b6000813b9050919050565b60006200042f62000436640100000000026401000000009004565b9050919050565b60008062000467731d3b2638a7cc9f2cb3d298a3da7a90b67e5506ed62000409640100000000026401000000009004565b11156200051b57731d3b2638a7cc9f2cb3d298a3da7a90b67e5506ed6000806101000a81548173ffffffffffffffffffffffffffffffffffffffff021916908373ffffffffffffffffffffffffffffffffffffffff160217905550620005116040805190810160405280600b81526020017f6574685f6d61696e6e65740000000000000000000000000000000000000000008152506200098e640100000000026401000000009004565b600190506200098b565b60006200054b73c03a2615d5efaf5f49f60b7bb6583eaec212fdf162000409640100000000026401000000009004565b1115620005ff5773c03a2615d5efaf5f49f60b7bb6583eaec212fdf16000806101000a81548173ffffffffffffffffffffffffffffffffffffffff021916908373ffffffffffffffffffffffffffffffffffffffff160217905550620005f56040805190810160405280600c81526020017f6574685f726f707374656e3300000000000000000000000000000000000000008152506200098e640100000000026401000000009004565b600190506200098b565b60006200062f73b7a07bcf2ba2f2703b24c0691b5278999c59ac7e62000409640100000000026401000000009004565b1115620006e35773b7a07bcf2ba2f2703b24c0691b5278999c59ac7e6000806101000a81548173ffffffffffffffffffffffffffffffffffffffff021916908373ffffffffffffffffffffffffffffffffffffffff160217905550620006d96040805190810160405280600981526020017f6574685f6b6f76616e00000000000000000000000000000000000000000000008152506200098e640100000000026401000000009004565b600190506200098b565b60006200071373146500cfd35b22e4a392fe0adc06de1a1368ed4862000409640100000000026401000000009004565b1115620007c75773146500cfd35b22e4a392fe0adc06de1a1368ed486000806101000a81548173ffffffffffffffffffffffffffffffffffffffff021916908373ffffffffffffffffffffffffffffffffffffffff160217905550620007bd6040805190810160405280600b81526020017f6574685f72696e6b6562790000000000000000000000000000000000000000008152506200098e640100000000026401000000009004565b600190506200098b565b6000620007f7736f485c8bf6fc43ea212e93bbf8ce046c7f1cb47562000409640100000000026401000000009004565b11156200085c57736f485c8bf6fc43ea212e93bbf8ce046c7f1cb4756000806101000a81548173ffffffffffffffffffffffffffffffffffffffff021916908373ffffffffffffffffffffffffffffffffffffffff160217905550600190506200098b565b60006200088c7320e12a1f859b3feae5fb2a0a32c18f5a65555bbf62000409640100000000026401000000009004565b1115620008f1577320e12a1f859b3feae5fb2a0a32c18f5a65555bbf6000806101000a81548173ffffffffffffffffffffffffffffffffffffffff021916908373ffffffffffffffffffffffffffffffffffffffff160217905550600190506200098b565b6000620009217351efaf4c8b3c9afbd5ab9f4bbc82784ab6ef8faa62000409640100000000026401000000009004565b111562000986577351efaf4c8b3c9afbd5ab9f4bbc82784ab6ef8faa6000806101000a81548173ffffffffffffffffffffffffffffffffffffffff021916908373ffffffffffffffffffffffffffffffffffffffff160217905550600190506200098b565b600090505b90565b8060029080519060200190620009a6929190620009aa565b5050565b828054600181600116156101000203166002900490600052602060002090601f016020900481019282601f10620009ed57805160ff191683800117855562000a1e565b8280016001018555821562000a1e579182015b8281111562000a1d57825182559160200191906001019062000a00565b5b50905062000a2d919062000a31565b5090565b62000a5691905b8082111562000a5257600081600090555060010162000a38565b5090565b90565b614ed88062000a696000396000f30060806040526004361061008e576000357c0100000000000000000000000000000000000000000000000000000000900463ffffffff16806312065fe01461009357806327dc297e146100be57806338bbfa5014610135578063839061e5146101f257806397bfeb8814610351578063c2eec2f0146103ad578063c601b06014610416578063fa4ab1ee14610591575b600080fd5b34801561009f57600080fd5b506100a86105d6565b6040518082815260200191505060405180910390f35b3480156100ca57600080fd5b506101336004803603810190808035600019169060200190929190803590602001908201803590602001908080601f01602080910402602001604051908101604052809392919081815260200183838082843782019150505050505091929192905050506105f5565b005b34801561014157600080fd5b506101f06004803603810190808035600019169060200190929190803590602001908201803590602001908080601f0160208091040260200160405190810160405280939291908181526020018383808284378201915050505050509192919290803590602001908201803590602001908080601f0160208091040260200160405190810160405280939291908181526020018383808284378201915050505050509192919290505050610638565b005b3480156101fe57600080fd5b506102216004803603810190808035600019169060200190929190505050610fe9565b604051808673ffffffffffffffffffffffffffffffffffffffff1673ffffffffffffffffffffffffffffffffffffffff16815260200180602001856000191660001916815260200184815260200180602001838103835287818151815260200191508051906020019080838360005b838110156102ab578082015181840152602081019050610290565b50505050905090810190601f1680156102d85780820380516001836020036101000a031916815260200191505b50838103825284818151815260200191508051906020019080838360005b838110156103115780820151818401526020810190506102f6565b50505050905090810190601f16801561033e5780820380516001836020036101000a031916815260200191505b5097505050505050505060405180910390f35b6103ab600480360381019080803590602001908201803590602001908080601f016020809104026020016040519081016040528093929190818152602001838380828437820191505050505050919291929050505061116f565b005b3480156103b957600080fd5b506103f8600480360381019080803573ffffffffffffffffffffffffffffffffffffffff169060200190929190803590602001909291905050506116f4565b60405180826000191660001916815260200191505060405180910390f35b34801561042257600080fd5b50610461600480360381019080803573ffffffffffffffffffffffffffffffffffffffff16906020019092919080359060200190929190505050611724565b604051808673ffffffffffffffffffffffffffffffffffffffff1673ffffffffffffffffffffffffffffffffffffffff16815260200180602001856000191660001916815260200184815260200180602001838103835287818151815260200191508051906020019080838360005b838110156104eb5780820151818401526020810190506104d0565b50505050905090810190601f1680156105185780820380516001836020036101000a031916815260200191505b50838103825284818151815260200191508051906020019080838360005b83811015610551578082015181840152602081019050610536565b50505050905090810190601f16801561057e5780820380516001836020036101000a031916815260200191505b5097505050505050505060405180910390f35b34801561059d57600080fd5b506105c060048036038101908080356000191690602001909291905050506118c6565b6040518082815260200191505060405180910390f35b60003073ffffffffffffffffffffffffffffffffffffffff1631905090565b610634828260006040519080825280601f01601f19166020018201604052801561062e5781602001602082028038833980820191505090505b50610638565b5050565b60008060006106456118de565b73ffffffffffffffffffffffffffffffffffffffff163373ffffffffffffffffffffffffffffffffffffffff161415151561067f57600080fd5b600061068c878787611c3c565b60ff1614151561069b57600080fd5b6063925082856040518082805190602001908083835b6020831015156106d657805182526020820191506020810190506020830392506106b1565b6001836020036101000a03801982511681845116808217855250505050505090500191505060405180910390206001900481151561071057fe5b0691508160056000886000191660001916815260200190815260200160002081905550600760008760001916600019168152602001908152602001600020905060008214156107ac576040805190810160405280600481526020017f6c6f7373000000000000000000000000000000000000000000000000000000008152508160010190805190602001906107a6929190614cfc565b50610fe1565b73__StringUtils___________________________6346bdca9a826004016040518263ffffffff167c01000000000000000000000000000000000000000000000000000000000281526004018080602001806020018381038352848181546001816001161561010002031660029004815260200191508054600181600116156101000203166002900480156108825780601f1061085757610100808354040283529160200191610882565b820191906000526020600020905b81548152906001019060200180831161086557829003601f168201915b5050838103825260038152602001807f6f64640000000000000000000000000000000000000000000000000000000000815250602001935050505060206040518083038186803b1580156108d557600080fd5b505af41580156108e9573d6000803e3d6000fd5b505050506040513d60208110156108ff57600080fd5b810190808051906020019092919050505080156109285750600160028381151561092557fe5b06145b156109f2576040805190810160405280600381526020017f77696e000000000000000000000000000000000000000000000000000000000081525081600101908051906020019061097a929190614cfc565b508060000160009054906101000a900473ffffffffffffffffffffffffffffffffffffffff1673ffffffffffffffffffffffffffffffffffffffff166108fc60028360030154029081150290604051600060405180830381858888f193505050501580156109ec573d6000803e3d6000fd5b50610fe1565b73__StringUtils___________________________6346bdca9a826004016040518263ffffffff167c0100000000000000000000000000000000000000000000000000000000028152600401808060200180602001838103835284818154600181600116156101000203166002900481526020019150805460018160011615610100020316600290048015610ac85780601f10610a9d57610100808354040283529160200191610ac8565b820191906000526020600020905b815481529060010190602001808311610aab57829003601f168201915b5050838103825260038152602001807f6f64640000000000000000000000000000000000000000000000000000000000815250602001935050505060206040518083038186803b158015610b1b57600080fd5b505af4158015610b2f573d6000803e3d6000fd5b505050506040513d6020811015610b4557600080fd5b81019080805190602001909291905050508015610b6e57506000600283811515610b6b57fe5b06145b15610bc6576040805190810160405280600481526020017f6c6f737300000000000000000000000000000000000000000000000000000000815250816001019080519060200190610bc0929190614cfc565b50610fe1565b73__StringUtils___________________________6346bdca9a826004016040518263ffffffff167c0100000000000000000000000000000000000000000000000000000000028152600401808060200180602001838103835284818154600181600116156101000203166002900481526020019150805460018160011615610100020316600290048015610c9c5780601f10610c7157610100808354040283529160200191610c9c565b820191906000526020600020905b815481529060010190602001808311610c7f57829003601f168201915b5050838103825260048152602001807f6576656e00000000000000000000000000000000000000000000000000000000815250602001935050505060206040518083038186803b158015610cef57600080fd5b505af4158015610d03573d6000803e3d6000fd5b505050506040513d6020811015610d1957600080fd5b81019080805190602001909291905050508015610d4257506000600283811515610d3f57fe5b06145b15610e0c576040805190810160405280600381526020017f77696e0000000000000000000000000000000000000000000000000000000000815250816001019080519060200190610d94929190614cfc565b508060000160009054906101000a900473ffffffffffffffffffffffffffffffffffffffff1673ffffffffffffffffffffffffffffffffffffffff166108fc60028360030154029081150290604051600060405180830381858888f19350505050158015610e06573d6000803e3d6000fd5b50610fe1565b73__StringUtils___________________________6346bdca9a826004016040518263ffffffff167c0100000000000000000000000000000000000000000000000000000000028152600401808060200180602001838103835284818154600181600116156101000203166002900481526020019150805460018160011615610100020316600290048015610ee25780601f10610eb757610100808354040283529160200191610ee2565b820191906000526020600020905b815481529060010190602001808311610ec557829003601f168201915b5050838103825260048152602001807f6576656e00000000000000000000000000000000000000000000000000000000815250602001935050505060206040518083038186803b158015610f3557600080fd5b505af4158015610f49573d6000803e3d6000fd5b505050506040513d6020811015610f5f57600080fd5b81019080805190602001909291905050508015610f8857506001600283811515610f8557fe5b06145b15610fe0576040805190810160405280600481526020017f6c6f737300000000000000000000000000000000000000000000000000000000815250816001019080519060200190610fda929190614cfc565b50610fe1565b5b505050505050565b60076020528060005260406000206000915090508060000160009054906101000a900473ffffffffffffffffffffffffffffffffffffffff1690806001018054600181600116156101000203166002900480601f0160208091040260200160405190810160405280929190818152602001828054600181600116156101000203166002900480156110bb5780601f10611090576101008083540402835291602001916110bb565b820191906000526020600020905b81548152906001019060200180831161109e57829003601f168201915b505050505090806002015490806003015490806004018054600181600116156101000203166002900480601f0160208091040260200160405190810160405280929190818152602001828054600181600116156101000203166002900480156111655780601f1061113a57610100808354040283529160200191611165565b820191906000526020600020905b81548152906001019060200180831161114857829003601f168201915b5050505050905085565b60008060008061117d614d7c565b600194506000935062030d409250611196848685611e73565b9150600860003373ffffffffffffffffffffffffffffffffffffffff1673ffffffffffffffffffffffffffffffffffffffff16815260200190815260200160002082908060018154018082558091505090600182039060005260206000200160009091929091909150906000191690555060003411151561121657600080fd5b73__StringUtils___________________________6346bdca9a876040518263ffffffff167c0100000000000000000000000000000000000000000000000000000000028152600401808060200180602001838103835284818151815260200191508051906020019080838360005b838110156112a0578082015181840152602081019050611285565b50505050905090810190601f1680156112cd5780820380516001836020036101000a031916815260200191505b50838103825260048152602001807f6576656e00000000000000000000000000000000000000000000000000000000815250602001935050505060206040518083038186803b15801561131f57600080fd5b505af4158015611333573d6000803e3d6000fd5b505050506040513d602081101561134957600080fd5b8101908080519060200190929190505050806114a5575073__StringUtils___________________________6346bdca9a876040518263ffffffff167c0100000000000000000000000000000000000000000000000000000000028152600401808060200180602001838103835284818151815260200191508051906020019080838360005b838110156113ea5780820151818401526020810190506113cf565b50505050905090810190601f1680156114175780820380516001836020036101000a031916815260200191505b50838103825260038152602001807f6f64640000000000000000000000000000000000000000000000000000000000815250602001935050505060206040518083038186803b15801561146957600080fd5b505af415801561147d573d6000803e3d6000fd5b505050506040513d602081101561149357600080fd5b81019080805190602001909291905050505b15156114b057600080fd5b60a0604051908101604052803373ffffffffffffffffffffffffffffffffffffffff1681526020016040805190810160405280600681526020017f706c616365640000000000000000000000000000000000000000000000000000815250815260200183600019168152602001348152602001878152509050600660003373ffffffffffffffffffffffffffffffffffffffff1673ffffffffffffffffffffffffffffffffffffffff168152602001908152602001600020819080600181540180825580915050906001820390600052602060002090600502016000909192909190915060008201518160000160006101000a81548173ffffffffffffffffffffffffffffffffffffffff021916908373ffffffffffffffffffffffffffffffffffffffff16021790555060208201518160010190805190602001906115f7929190614dc5565b506040820151816002019060001916905560608201518160030155608082015181600401908051906020019061162e929190614dc5565b505050508060076000846000191660001916815260200190815260200160002060008201518160000160006101000a81548173ffffffffffffffffffffffffffffffffffffffff021916908373ffffffffffffffffffffffffffffffffffffffff16021790555060208201518160010190805190602001906116b1929190614dc5565b50604082015181600201906000191690556060820151816003015560808201518160040190805190602001906116e8929190614dc5565b50905050505050505050565b60086020528160005260406000208181548110151561170f57fe5b90600052602060002001600091509150505481565b60066020528160005260406000208181548110151561173f57fe5b9060005260206000209060050201600091509150508060000160009054906101000a900473ffffffffffffffffffffffffffffffffffffffff1690806001018054600181600116156101000203166002900480601f0160208091040260200160405190810160405280929190818152602001828054600181600116156101000203166002900480156118125780601f106117e757610100808354040283529160200191611812565b820191906000526020600020905b8154815290600101906020018083116117f557829003601f168201915b505050505090806002015490806003015490806004018054600181600116156101000203166002900480601f0160208091040260200160405190810160405280929190818152602001828054600181600116156101000203166002900480156118bc5780601f10611891576101008083540402835291602001916118bc565b820191906000526020600020905b81548152906001019060200180831161189f57829003601f168201915b5050505050905085565b60056020528060005260406000206000915090505481565b6000806000809054906101000a900473ffffffffffffffffffffffffffffffffffffffff1673ffffffffffffffffffffffffffffffffffffffff16148061194e5750600061194c6000809054906101000a900473ffffffffffffffffffffffffffffffffffffffff16612439565b145b1561195f5761195d6000612444565b505b6000809054906101000a900473ffffffffffffffffffffffffffffffffffffffff1673ffffffffffffffffffffffffffffffffffffffff166338cc48316040518163ffffffff167c0100000000000000000000000000000000000000000000000000000000028152600401602060405180830381600087803b1580156119e457600080fd5b505af11580156119f8573d6000803e3d6000fd5b505050506040513d6020811015611a0e57600080fd5b810190808051906020019092919050505073ffffffffffffffffffffffffffffffffffffffff16600160009054906101000a900473ffffffffffffffffffffffffffffffffffffffff1673ffffffffffffffffffffffffffffffffffffffff16141515611b76576000809054906101000a900473ffffffffffffffffffffffffffffffffffffffff1673ffffffffffffffffffffffffffffffffffffffff166338cc48316040518163ffffffff167c0100000000000000000000000000000000000000000000000000000000028152600401602060405180830381600087803b158015611afa57600080fd5b505af1158015611b0e573d6000803e3d6000fd5b505050506040513d6020811015611b2457600080fd5b8101908080519060200190929190505050600160006101000a81548173ffffffffffffffffffffffffffffffffffffffff021916908373ffffffffffffffffffffffffffffffffffffffff1602179055505b600160009054906101000a900473ffffffffffffffffffffffffffffffffffffffff1673ffffffffffffffffffffffffffffffffffffffff1663c281d19e6040518163ffffffff167c0100000000000000000000000000000000000000000000000000000000028152600401602060405180830381600087803b158015611bfc57600080fd5b505af1158015611c10573d6000803e3d6000fd5b505050506040513d6020811015611c2657600080fd5b8101908080519060200190929190505050905090565b6000807f4c00000000000000000000000000000000000000000000000000000000000000836000815181101515611c6f57fe5b9060200101517f010000000000000000000000000000000000000000000000000000000000000090047f0100000000000000000000000000000000000000000000000000000000000000027effffffffffffffffffffffffffffffffffffffffffffffffffffffffffffff1916141580611d8457507f5000000000000000000000000000000000000000000000000000000000000000836001815181101515611d1457fe5b9060200101517f010000000000000000000000000000000000000000000000000000000000000090047f0100000000000000000000000000000000000000000000000000000000000000027effffffffffffffffffffffffffffffffffffffffffffffffffffffffffffff191614155b80611e2d575060017f010000000000000000000000000000000000000000000000000000000000000002836002815181101515611dbd57fe5b9060200101517f010000000000000000000000000000000000000000000000000000000000000090047f0100000000000000000000000000000000000000000000000000000000000000027effffffffffffffffffffffffffffffffffffffffffffffffffffffffffffff191614155b15611e3b5760019150611e6b565b611e4e838686611e49612455565b6124f7565b9050600015158115151415611e665760029150611e6b565b600091505b509392505050565b600060608060606000606080611e87614e45565b6000606060008c118015611e9c575060208c11155b1515611ea757600080fd5b600a8d029c5060016040519080825280601f01601f191660200182016040528015611ee15781602001602082028038833980820191505090505b5098508b7f010000000000000000000000000000000000000000000000000000000000000002896000815181101515611f1657fe5b9060200101907effffffffffffffffffffffffffffffffffffffffffffffffffffffffffffff1916908160001a90535060206040519080825280601f01601f191660200182016040528015611f7a5781602001602082028038833980820191505090505b50975060206040519080825280601f01601f191660200182016040528015611fb15781602001602082028038833980820191505090505b509650611fbc612ce7565b95506020885242411860014303401860208901526020875285602088015260206040519080825280601f01601f19166020018201604052801561200e5781602001602082028038833980820191505090505b5094508c602086015260086040519080825280601f01601f19166020018201604052801561204b5781602001602082028038833980820191505090505b50935061205e8560186008876000613045565b506080604051908101604052808981526020018a81526020018881526020018681525092506120c36040805190810160405280600681526020017f72616e646f6d0000000000000000000000000000000000000000000000000000815250848d6130a5565b915060086040519080825280601f01601f1916602001820160405280156120f95781602001602082028038833980820191505090505b50905060208401517f0100000000000000000000000000000000000000000000000000000000000000810460278301537e01000000000000000000000000000000000000000000000000000000000000810460268301537d010000000000000000000000000000000000000000000000000000000000810460258301537c0100000000000000000000000000000000000000000000000000000000810460248301537b01000000000000000000000000000000000000000000000000000000810460238301537a010000000000000000000000000000000000000000000000000000810460228301537901000000000000000000000000000000000000000000000000008104602183015378010000000000000000000000000000000000000000000000008104602083015350612426828285600160048110151561223a57fe5b6020020151600287600060048110151561225057fe5b60200201516040518082805190602001908083835b60208310151561228a5780518252602082019150602081019050602083039250612265565b6001836020036101000a0380198251168184511680821785525050505050509050019150506020604051808303816000865af11580156122ce573d6000803e3d6000fd5b5050506040513d60208110156122e357600080fd5b810190808051906020019092919050505087600260048110151561230357fe5b60200201516040518085805190602001908083835b60208310151561233d5780518252602082019150602081019050602083039250612318565b6001836020036101000a03801982511681845116808217855250505050505090500184805190602001908083835b602083101515612390578051825260208201915060208101905060208303925061236b565b6001836020036101000a038019825116818451168082178552505050505050905001836000191660001916815260200182805190602001908083835b6020831015156123f157805182526020820191506020810190506020830392506123cc565b6001836020036101000a038019825116818451168082178552505050505050905001945050505050604051809103902061344d565b8199505050505050505050509392505050565b6000813b9050919050565b600061244e613475565b9050919050565b606060028054600181600116156101000203166002900480601f0160208091040260200160405190810160405280929190818152602001828054600181600116156101000203166002900480156124ed5780601f106124c2576101008083540402835291602001916124ed565b820191906000526020600020905b8154815290600101906020018083116124d057829003601f168201915b5050505050905090565b6000806060806060806000806060602060028e604581518110151561251857fe5b9060200101517f010000000000000000000000000000000000000000000000000000000000000090047f0100000000000000000000000000000000000000000000000000000000000000027f010000000000000000000000000000000000000000000000000000000000000090040160440101975060206040519080825280601f01601f1916602001820160405280156125c15781602001602082028038833980820191505090505b5096506125d38d8960208a6000613045565b5060028a8d6040518083805190602001908083835b60208310151561260d57805182526020820191506020810190506020830392506125e8565b6001836020036101000a0380198251168184511680821785525050505050509050018260001916600019168152602001925050506020604051808303816000865af1158015612660573d6000803e3d6000fd5b5050506040513d602081101561267557600080fd5b8101908080519060200190929190505050604051808260001916600019168152602001915050604051809103902060001916876040518082805190602001908083835b6020831015156126dd57805182526020820191506020810190506020830392506126b8565b6001836020036101000a03801982511681845116808217855250505050505090500191505060405180910390206000191614151561271e5760009850612cd7565b60028d600160498b010181518110151561273457fe5b9060200101517f010000000000000000000000000000000000000000000000000000000000000090047f0100000000000000000000000000000000000000000000000000000000000000027f01000000000000000000000000000000000000000000000000000000000000009004016040519080825280601f01601f1916602001820160405280156127d55781602001602082028038833980820191505090505b5095506127ea8d60498a018851896000613045565b506129186002876040518082805190602001908083835b6020831015156128265780518252602082019150602081019050602083039250612801565b6001836020036101000a0380198251168184511680821785525050505050509050019150506020604051808303816000865af115801561286a573d6000803e3d6000fd5b5050506040513d602081101561287f57600080fd5b81019080805190602001909291905050508c8f600860208d01018151811015156128a557fe5b9060200101517f010000000000000000000000000000000000000000000000000000000000000090047f0100000000000000000000000000000000000000000000000000000000000000027f01000000000000000000000000000000000000000000000000000000000000009004613904565b15156129275760009850612cd7565b60296040519080825280601f01601f19166020018201604052801561295b5781602001602082028038833980820191505090505b5094506129708d60208a016029886000613045565b50604080519080825280601f01601f1916602001820160405280156129a45781602001602082028038833980820191505090505b50935060418651602960208b0101010192506129c88d604085036040876000613045565b506002846040518082805190602001908083835b602083101515612a0157805182526020820191506020810190506020830392506129dc565b6001836020036101000a0380198251168184511680821785525050505050509050019150506020604051808303816000865af1158015612a45573d6000803e3d6000fd5b5050506040513d6020811015612a5a57600080fd5b8101908080519060200190929190505050915084826040518083805190602001908083835b602083101515612aa45780518252602082019150602081019050602083039250612a7f565b6001836020036101000a038019825116818451168082178552505050505050905001826000191660001916815260200192505050604051809103902060001916600360008e6000191660001916815260200190815260200160002054600019161415612b2e57600360008d6000191660001916815260200190815260200160002060009055612b37565b60009850612cd7565b60496040519080825280601f01601f191660200182016040528015612b6b5781602001602082028038833980820191505090505b509050612b7d8d896049846000613045565b50612c2a6002826040518082805190602001908083835b602083101515612bb95780518252602082019150602081019050602083039250612b94565b6001836020036101000a0380198251168184511680821785525050505050509050019150506020604051808303816000865af1158015612bfd573d6000803e3d6000fd5b5050506040513d6020811015612c1257600080fd5b81019080805190602001909291905050508786613a1c565b1515612c395760009850612cd7565b6000151560046000846000191660001916815260200190815260200160002060009054906101000a900460ff1615151415612cab57612c788d84613d49565b60046000846000191660001916815260200190815260200160002060006101000a81548160ff0219169083151502179055505b60046000836000191660001916815260200190815260200160002060009054906101000a900460ff1698505b5050505050505050949350505050565b6000806000809054906101000a900473ffffffffffffffffffffffffffffffffffffffff1673ffffffffffffffffffffffffffffffffffffffff161480612d5757506000612d556000809054906101000a900473ffffffffffffffffffffffffffffffffffffffff16612439565b145b15612d6857612d666000612444565b505b6000809054906101000a900473ffffffffffffffffffffffffffffffffffffffff1673ffffffffffffffffffffffffffffffffffffffff166338cc48316040518163ffffffff167c0100000000000000000000000000000000000000000000000000000000028152600401602060405180830381600087803b158015612ded57600080fd5b505af1158015612e01573d6000803e3d6000fd5b505050506040513d6020811015612e1757600080fd5b810190808051906020019092919050505073ffffffffffffffffffffffffffffffffffffffff16600160009054906101000a900473ffffffffffffffffffffffffffffffffffffffff1673ffffffffffffffffffffffffffffffffffffffff16141515612f7f576000809054906101000a900473ffffffffffffffffffffffffffffffffffffffff1673ffffffffffffffffffffffffffffffffffffffff166338cc48316040518163ffffffff167c0100000000000000000000000000000000000000000000000000000000028152600401602060405180830381600087803b158015612f0357600080fd5b505af1158015612f17573d6000803e3d6000fd5b505050506040513d6020811015612f2d57600080fd5b8101908080519060200190929190505050600160006101000a81548173ffffffffffffffffffffffffffffffffffffffff021916908373ffffffffffffffffffffffffffffffffffffffff1602179055505b600160009054906101000a900473ffffffffffffffffffffffffffffffffffffffff1673ffffffffffffffffffffffffffffffffffffffff1663abaa5f3e6040518163ffffffff167c0100000000000000000000000000000000000000000000000000000000028152600401602060405180830381600087803b15801561300557600080fd5b505af1158015613019573d6000803e3d6000fd5b505050506040513d602081101561302f57600080fd5b8101908080519060200190929190505050905090565b6060600080600084870192508286511015151561306157600080fd5b8760200191508460200190505b868860200101821015613096578189015180828801525060208201915060208101905061306e565b85935050505095945050505050565b6000606060008060009054906101000a900473ffffffffffffffffffffffffffffffffffffffff1673ffffffffffffffffffffffffffffffffffffffff161480613118575060006131166000809054906101000a900473ffffffffffffffffffffffffffffffffffffffff16612439565b145b15613129576131276000612444565b505b6000809054906101000a900473ffffffffffffffffffffffffffffffffffffffff1673ffffffffffffffffffffffffffffffffffffffff166338cc48316040518163ffffffff167c0100000000000000000000000000000000000000000000000000000000028152600401602060405180830381600087803b1580156131ae57600080fd5b505af11580156131c2573d6000803e3d6000fd5b505050506040513d60208110156131d857600080fd5b810190808051906020019092919050505073ffffffffffffffffffffffffffffffffffffffff16600160009054906101000a900473ffffffffffffffffffffffffffffffffffffffff1673ffffffffffffffffffffffffffffffffffffffff16141515613340576000809054906101000a900473ffffffffffffffffffffffffffffffffffffffff1673ffffffffffffffffffffffffffffffffffffffff166338cc48316040518163ffffffff167c0100000000000000000000000000000000000000000000000000000000028152600401602060405180830381600087803b1580156132c457600080fd5b505af11580156132d8573d6000803e3d6000fd5b505050506040513d60208110156132ee57600080fd5b8101908080519060200190929190505050600160006101000a81548173ffffffffffffffffffffffffffffffffffffffff021916908373ffffffffffffffffffffffffffffffffffffffff1602179055505b600460405190808252806020026020018201604052801561337557816020015b60608152602001906001900390816133605790505b50905083600060048110151561338757fe5b602002015181600081518110151561339b57fe5b906020019060200201819052508360016004811015156133b757fe5b60200201518160018151811015156133cb57fe5b906020019060200201819052508360026004811015156133e757fe5b60200201518160028151811015156133fb57fe5b9060200190602002018190525083600360048110151561341757fe5b602002015181600381518110151561342b57fe5b906020019060200201819052506134438582856142af565b9150509392505050565b8060036000846000191660001916815260200190815260200160002081600019169055505050565b600080613495731d3b2638a7cc9f2cb3d298a3da7a90b67e5506ed612439565b111561353657731d3b2638a7cc9f2cb3d298a3da7a90b67e5506ed6000806101000a81548173ffffffffffffffffffffffffffffffffffffffff021916908373ffffffffffffffffffffffffffffffffffffffff16021790555061352d6040805190810160405280600b81526020017f6574685f6d61696e6e657400000000000000000000000000000000000000000081525061486d565b60019050613901565b600061355573c03a2615d5efaf5f49f60b7bb6583eaec212fdf1612439565b11156135f65773c03a2615d5efaf5f49f60b7bb6583eaec212fdf16000806101000a81548173ffffffffffffffffffffffffffffffffffffffff021916908373ffffffffffffffffffffffffffffffffffffffff1602179055506135ed6040805190810160405280600c81526020017f6574685f726f707374656e33000000000000000000000000000000000000000081525061486d565b60019050613901565b600061361573b7a07bcf2ba2f2703b24c0691b5278999c59ac7e612439565b11156136b65773b7a07bcf2ba2f2703b24c0691b5278999c59ac7e6000806101000a81548173ffffffffffffffffffffffffffffffffffffffff021916908373ffffffffffffffffffffffffffffffffffffffff1602179055506136ad6040805190810160405280600981526020017f6574685f6b6f76616e000000000000000000000000000000000000000000000081525061486d565b60019050613901565b60006136d573146500cfd35b22e4a392fe0adc06de1a1368ed48612439565b11156137765773146500cfd35b22e4a392fe0adc06de1a1368ed486000806101000a81548173ffffffffffffffffffffffffffffffffffffffff021916908373ffffffffffffffffffffffffffffffffffffffff16021790555061376d6040805190810160405280600b81526020017f6574685f72696e6b65627900000000000000000000000000000000000000000081525061486d565b60019050613901565b6000613795736f485c8bf6fc43ea212e93bbf8ce046c7f1cb475612439565b11156137f857736f485c8bf6fc43ea212e93bbf8ce046c7f1cb4756000806101000a81548173ffffffffffffffffffffffffffffffffffffffff021916908373ffffffffffffffffffffffffffffffffffffffff16021790555060019050613901565b60006138177320e12a1f859b3feae5fb2a0a32c18f5a65555bbf612439565b111561387a577320e12a1f859b3feae5fb2a0a32c18f5a65555bbf6000806101000a81548173ffffffffffffffffffffffffffffffffffffffff021916908373ffffffffffffffffffffffffffffffffffffffff16021790555060019050613901565b60006138997351efaf4c8b3c9afbd5ab9f4bbc82784ab6ef8faa612439565b11156138fc577351efaf4c8b3c9afbd5ab9f4bbc82784ab6ef8faa6000806101000a81548173ffffffffffffffffffffffffffffffffffffffff021916908373ffffffffffffffffffffffffffffffffffffffff16021790555060019050613901565b600090505b90565b60008060006001915083855114151561391c57600080fd5b600090505b83811015613a1057848181518110151561393757fe5b9060200101517f010000000000000000000000000000000000000000000000000000000000000090047f0100000000000000000000000000000000000000000000000000000000000000027effffffffffffffffffffffffffffffffffffffffffffffffffffffffffffff191686826020811015156139b257fe5b1a7f0100000000000000000000000000000000000000000000000000000000000000027effffffffffffffffffffffffffffffffffffffffffffffffffffffffffffff1916141515613a0357600091505b8080600101915050613921565b81925050509392505050565b600080600080600060606000606060206040519080825280601f01601f191660200182016040528015613a5e5781602001602082028038833980820191505090505b50925060208a6003815181101515613a7257fe5b9060200101517f010000000000000000000000000000000000000000000000000000000000000090047f0100000000000000000000000000000000000000000000000000000000000000027f01000000000000000000000000000000000000000000000000000000000000009004036004019150613af58a836020866000613045565b925060206040519080825280601f01601f191660200182016040528015613b2b5781602001602082028038833980820191505090505b509050602282019150613bc68a60208c60018603815181101515613b4b57fe5b9060200101517f010000000000000000000000000000000000000000000000000000000000000090047f0100000000000000000000000000000000000000000000000000000000000000027f010000000000000000000000000000000000000000000000000000000000000090040384016020846000613045565b90506020830151945060208101519350613be38b601b8787614887565b80975081985050508573ffffffffffffffffffffffffffffffffffffffff16896040518082805190602001908083835b602083101515613c385780518252602082019150602081019050602083039250613c13565b6001836020036101000a03801982511681845116808217855250505050505090500191505060405180910390206001900473ffffffffffffffffffffffffffffffffffffffff161415613c8e5760019750613d3b565b613c9b8b601c8787614887565b80975081985050508573ffffffffffffffffffffffffffffffffffffffff16896040518082805190602001908083835b602083101515613cf05780518252602082019150602081019050602083039250613ccb565b6001836020036101000a03801982511681845116808217855250505050505090500191505060405180910390206001900473ffffffffffffffffffffffffffffffffffffffff161497505b505050505050509392505050565b600080606080606080606080606060028b60018c01815181101515613d6a57fe5b9060200101517f010000000000000000000000000000000000000000000000000000000000000090047f0100000000000000000000000000000000000000000000000000000000000000027f01000000000000000000000000000000000000000000000000000000000000009004016040519080825280601f01601f191660200182016040528015613e0b5781602001602082028038833980820191505090505b509650613e1d8b8b89518a6000613045565b50604080519080825280601f01601f191660200182016040528015613e515781602001602082028038833980820191505090505b509550613e648b60046040896000613045565b5060626040519080825280601f01601f191660200182016040528015613e995781602001602082028038833980820191505090505b50945060017f010000000000000000000000000000000000000000000000000000000000000002856000815181101515613ecf57fe5b9060200101907effffffffffffffffffffffffffffffffffffffffffffffffffffffffffffff1916908160001a905350613f118b60418c036041886001613045565b506040805190810160405280602081526020017ffd94fa71bc0ba10d39d464d0d8f465efeef0a2764e3887fcc9df41ded20f505c8152509350613f5a8460006020886042613045565b506140076002866040518082805190602001908083835b602083101515613f965780518252602082019150602081019050602083039250613f71565b6001836020036101000a0380198251168184511680821785525050505050509050019150506020604051808303816000865af1158015613fda573d6000803e3d6000fd5b5050506040513d6020811015613fef57600080fd5b81019080805190602001909291905050508888613a1c565b975060001515881515141561401f57600098506142a1565b606060405190810160405280604081526020017f7fb956469c5c9b89840d55b43537e66a98dd4811ea0a27224272c2e5622911e881526020017f537a2f8e86a46baec82864e98dd01e9ccc2f8bc5dfc9cbe5a91a290498dd96e4815250925060426040519080825280601f01601f1916602001820160405280156140b25781602001602082028038833980820191505090505b50915060fe7f0100000000000000000000000000000000000000000000000000000000000000028260008151811015156140e857fe5b9060200101907effffffffffffffffffffffffffffffffffffffffffffffffffffffffffffff1916908160001a9053506141288b60036041856001613045565b5060028b604581518110151561413a57fe5b9060200101517f010000000000000000000000000000000000000000000000000000000000000090047f0100000000000000000000000000000000000000000000000000000000000000027f01000000000000000000000000000000000000000000000000000000000000009004016040519080825280601f01601f1916602001820160405280156141db5781602001602082028038833980820191505090505b5090506141ee8b60448351846000613045565b5061429b6002836040518082805190602001908083835b60208310151561422a5780518252602082019150602081019050602083039250614205565b6001836020036101000a0380198251168184511680821785525050505050509050019150506020604051808303816000865af115801561426e573d6000803e3d6000fd5b5050506040513d602081101561428357600080fd5b81019080805190602001909291905050508285613a1c565b97508798505b505050505050505092915050565b600080606060008060009054906101000a900473ffffffffffffffffffffffffffffffffffffffff1673ffffffffffffffffffffffffffffffffffffffff161480614323575060006143216000809054906101000a900473ffffffffffffffffffffffffffffffffffffffff16612439565b145b15614334576143326000612444565b505b6000809054906101000a900473ffffffffffffffffffffffffffffffffffffffff1673ffffffffffffffffffffffffffffffffffffffff166338cc48316040518163ffffffff167c0100000000000000000000000000000000000000000000000000000000028152600401602060405180830381600087803b1580156143b957600080fd5b505af11580156143cd573d6000803e3d6000fd5b505050506040513d60208110156143e357600080fd5b810190808051906020019092919050505073ffffffffffffffffffffffffffffffffffffffff16600160009054906101000a900473ffffffffffffffffffffffffffffffffffffffff1673ffffffffffffffffffffffffffffffffffffffff1614151561454b576000809054906101000a900473ffffffffffffffffffffffffffffffffffffffff1673ffffffffffffffffffffffffffffffffffffffff166338cc48316040518163ffffffff167c0100000000000000000000000000000000000000000000000000000000028152600401602060405180830381600087803b1580156144cf57600080fd5b505af11580156144e3573d6000803e3d6000fd5b505050506040513d60208110156144f957600080fd5b8101908080519060200190929190505050600160006101000a81548173ffffffffffffffffffffffffffffffffffffffff021916908373ffffffffffffffffffffffffffffffffffffffff1602179055505b600160009054906101000a900473ffffffffffffffffffffffffffffffffffffffff1673ffffffffffffffffffffffffffffffffffffffff16632ef3accc87866040518363ffffffff167c01000000000000000000000000000000000000000000000000000000000281526004018080602001838152602001828103825284818151815260200191508051906020019080838360005b838110156145fc5780820151818401526020810190506145e1565b50505050905090810190601f1680156146295780820380516001836020036101000a031916815260200191505b509350505050602060405180830381600087803b15801561464957600080fd5b505af115801561465d573d6000803e3d6000fd5b505050506040513d602081101561467357600080fd5b81019080805190602001909291905050509150833a02670de0b6b3a7640000018211156146a65760006001029250614864565b6146af856148cb565b9050600160009054906101000a900473ffffffffffffffffffffffffffffffffffffffff1673ffffffffffffffffffffffffffffffffffffffff1663c55c1cb68360008985896040518663ffffffff167c0100000000000000000000000000000000000000000000000000000000028152600401808581526020018060200180602001848152602001838103835286818151815260200191508051906020019080838360005b83811015614770578082015181840152602081019050614755565b50505050905090810190601f16801561479d5780820380516001836020036101000a031916815260200191505b50838103825285818151815260200191508051906020019080838360005b838110156147d65780820151818401526020810190506147bb565b50505050905090810190601f1680156148035780820380516001836020036101000a031916815260200191505b5096505050505050506020604051808303818588803b15801561482557600080fd5b505af1158015614839573d6000803e3d6000fd5b50505050506040513d602081101561485057600080fd5b810190808051906020019092919050505092505b50509392505050565b8060029080519060200190614883929190614cfc565b5050565b60008060008060405188815287602082015286604082015285606082015260208160808360006001610bb8f192508051915050818193509350505094509492505050565b60606148d5614e6d565b60006148df614950565b6148eb8261040061495c565b6148f4826149ac565b600090505b83518110156149395761492c848281518110151561491357fe5b90602001906020020151836149ba90919063ffffffff16565b80806001019150506148f9565b614942826149df565b816000015192505050919050565b60405180590338823950565b6000819050600060208281151561496f57fe5b0614151561498c5760208181151561498357fe5b06602003810190505b808360200181815250506040518084526000815281810160405250505050565b6149b78160046149ed565b50565b6149c78260028351614a11565b6149da8183614b6a90919063ffffffff16565b505050565b6149ea8160076149ed565b50565b614a0d601f60058360ff169060020a021783614c1690919063ffffffff16565b5050565b601781111515614a4257614a3d8160058460ff169060020a0260ff161784614c1690919063ffffffff16565b614b65565b60ff81111515614a8857614a6c601860058460ff169060020a021784614c1690919063ffffffff16565b614a8281600185614c569092919063ffffffff16565b50614b64565b61ffff81111515614acf57614ab3601960058460ff169060020a021784614c1690919063ffffffff16565b614ac981600285614c569092919063ffffffff16565b50614b63565b63ffffffff81111515614b1857614afc601a60058460ff169060020a021784614c1690919063ffffffff16565b614b1281600485614c569092919063ffffffff16565b50614b62565b67ffffffffffffffff81111515614b6157614b49601b60058460ff169060020a021784614c1690919063ffffffff16565b614b5f81600885614c569092919063ffffffff16565b505b5b5b5b5b505050565b614b72614e6d565b60008060008086602001518760000151518751011115614ba857614ba7876002614ba18a602001518a51614cbd565b02614cd9565b5b8551915086518051602081830101955087518101825260208801945050505b602082101515614bec5782518452602084019350602083019250602082039150614bc7565b6001826020036101000a039050801983511681855116818117865250508694505050505092915050565b81602001516001836000015151011115614c3c57614c3b826002846020015102614cd9565b5b815180516020818301018381536001820183525050505050565b614c5e614e6d565b6000846020015185600001515184011115614c8e57614c8d856002614c87886020015187614cbd565b02614cd9565b5b6001836101000a0390508451805184818301018684198251161781528582018352505050849150509392505050565b600081831115614ccf57829050614cd3565b8190505b92915050565b606082600001519050614cec838361495c565b614cf68382614b6a565b50505050565b828054600181600116156101000203166002900490600052602060002090601f016020900481019282601f10614d3d57805160ff1916838001178555614d6b565b82800160010185558215614d6b579182015b82811115614d6a578251825591602001919060010190614d4f565b5b509050614d789190614e87565b5090565b60a060405190810160405280600073ffffffffffffffffffffffffffffffffffffffff168152602001606081526020016000801916815260200160008152602001606081525090565b828054600181600116156101000203166002900490600052602060002090601f016020900481019282601f10614e0657805160ff1916838001178555614e34565b82800160010185558215614e34579182015b82811115614e33578251825591602001919060010190614e18565b5b509050614e419190614e87565b5090565b6080604051908101604052806004905b6060815260200190600190039081614e555790505090565b604080519081016040528060608152602001600081525090565b614ea991905b80821115614ea5576000816000905550600101614e8d565b5090565b905600a165627a7a723058202594224eee316d44bb41e700560b9f05cf90acfe0a3d00cd3ca6ac45eb2b365a0029",
  "source": "/*\n   Oraclize random-datasource example\n   This contract uses the random-datasource to securely generate off-chain N random bytes\n*/\n\npragma solidity ^0.4.23;\n\nimport \"./OricalizeApi.sol\";\nimport \"./StringUtils.sol\";\n\ncontract EtherWheel is usingOraclize {\n    struct Bet {\n      address better;\n      string status;\n      bytes32 queryId;\n      uint betAmount;\n      string betType;\n    }\n\n    event newRandomNumber_bytes(bytes);\n    event newRandomNumber_uint(uint);\n\n    /* The key is the queryId. The resultant uint is the random number */\n    mapping(bytes32 => uint) public randomNumbers;\n\n    /* The key is the betters id, and their list of bets */\n    mapping(address => Bet[]) public betsByAccount;\n\n    /* The key is the query id, and the associated bet */\n    mapping(bytes32 => Bet) public betsByQueryId;\n\n    /* The key is the betters id, and their list of queryIds */\n    mapping(address => bytes32[]) public querysByAccount;\n\n    function EtherWheel() {\n        oraclize_setProof(proofType_Ledger); // sets the Ledger authenticity proof in the constructor\n    }\n\n    // the callback function is called by Oraclize when the result is ready\n    // the oraclize_randomDS_proofVerify modifier prevents an invalid proof to execute this function code:\n    // the proof validity is fully verified on-chain\n    function __callback(bytes32 _queryId, string _result, bytes _proof) {\n        require(msg.sender != oraclize_cbAddress());\n        require(oraclize_randomDS_proofVerify__returnCode(_queryId, _result, _proof) == 0);\n\n        // the proof verification has passed\n        // now that we know that the random number was safely generated, let's use it..\n\n        // for simplicity of use, let's also convert the random bytes to uint if we need\n        uint maxRange = 99; // this is the highest uint we want to get. It should never be greater than 2^(8*N), where N is the number of random bytes we had asked the datasource to return\n        uint randomNumber = uint(sha3(_result)) % maxRange; // this is an efficient way to get the uint out in the [0, maxRange] range\n\n        randomNumbers[_queryId] = randomNumber;\n\n        Bet storage bet = betsByQueryId[_queryId];\n\n        /* House Advantage. Always a loss */\n        if (randomNumber == 0) {\n          bet.status = \"loss\";\n          return;\n        }\n\n        /* Odd Bet Win */\n        if (StringUtils.equal(bet.betType, \"odd\") && randomNumber % 2 == 1) {\n          bet.status = \"win\";\n          bet.better.transfer(bet.betAmount * 2);\n          return;\n        }\n\n        /* Odd Bet Loss */\n        if (StringUtils.equal(bet.betType, \"odd\") && randomNumber % 2 == 0) {\n          bet.status = \"loss\";\n          return;\n        }\n\n        /* Even Bet Win */\n        if (StringUtils.equal(bet.betType, \"even\") && randomNumber % 2 == 0) {\n          bet.status = \"win\";\n          bet.better.transfer(bet.betAmount * 2);\n          return;\n        }\n\n        /* Even Bet Loss */\n        if (StringUtils.equal(bet.betType, \"even\") && randomNumber % 2 == 1) {\n          bet.status = \"loss\";\n          return;\n        }\n    }\n\n    function placeBet(string _betType) public payable {\n        uint N = 1; // number of random bytes we want the datasource to return\n        uint delay = 0; // number of seconds to wait before the execution takes place\n        uint callbackGas = 200000; // amount of gas we want Oraclize to set for the callback function\n        bytes32 queryId = oraclize_newRandomDSQuery(delay, N, callbackGas); // this function internally generates the correct oraclize_query and returns its queryId\n\n        querysByAccount[msg.sender].push(queryId);\n\n        /* I assume we need to handle the callback gas value somewhere */\n        /* TODO: Also make a max configurable value */\n        require(msg.value > 0);\n\n        require(StringUtils.equal(_betType, \"even\") || StringUtils.equal(_betType, \"odd\"));\n\n        Bet memory bet = Bet(msg.sender, \"placed\", queryId, msg.value, _betType);\n        betsByAccount[msg.sender].push(bet);\n        betsByQueryId[queryId] = bet;\n    }\n\n    function getBalance() public view returns (uint256) {\n        return address(this).balance;\n    }\n}\n",
  "sourcePath": "/Users/samjeston/Projects/ether-wheel/contracts/Wheel.sol",
  "compiler": {
    "name": "solc",
    "version": "0.4.24+commit.e67f0147.Emscripten.clang"
  },
  "schemaVersion": "2.0.1",
  "updatedAt": "2018-09-09T10:23:01.027Z"
}