{
  "contractName": "StringUtils",
  "abi": [
    {
      "constant": false,
      "inputs": [
        {
          "name": "_a",
          "type": "string"
        },
        {
          "name": "_b",
          "type": "string"
        }
      ],
      "name": "compare",
      "outputs": [
        {
          "name": "",
          "type": "int256"
        }
      ],
      "payable": false,
      "stateMutability": "nonpayable",
      "type": "function"
    },
    {
      "constant": false,
      "inputs": [
        {
          "name": "_a",
          "type": "string"
        },
        {
          "name": "_b",
          "type": "string"
        }
      ],
      "name": "equal",
      "outputs": [
        {
          "name": "",
          "type": "bool"
        }
      ],
      "payable": false,
      "stateMutability": "nonpayable",
      "type": "function"
    },
    {
      "constant": false,
      "inputs": [
        {
          "name": "_haystack",
          "type": "string"
        },
        {
          "name": "_needle",
          "type": "string"
        }
      ],
      "name": "indexOf",
      "outputs": [
        {
          "name": "",
          "type": "int256"
        }
      ],
      "payable": false,
      "stateMutability": "nonpayable",
      "type": "function"
    }
  ],
  "bytecode": "0x6108d8610030600b82828239805160001a6073146000811461002057610022565bfe5b5030600052607381538281f300730000000000000000000000000000000000000000301460806040526004361061006e576000357c0100000000000000000000000000000000000000000000000000000000900463ffffffff1680633a96fdd71461007357806346bdca9a146101365780638a0807b7146101fd575b600080fd5b81801561007f57600080fd5b50610120600480360381019080803590602001908201803590602001908080601f0160208091040260200160405190810160405280939291908181526020018383808284378201915050505050509192919290803590602001908201803590602001908080601f01602080910402602001604051908101604052809392919081815260200183838082843782019150505050505091929192905050506102c0565b6040518082815260200191505060405180910390f35b81801561014257600080fd5b506101e3600480360381019080803590602001908201803590602001908080601f0160208091040260200160405190810160405280939291908181526020018383808284378201915050505050509192919290803590602001908201803590602001908080601f0160208091040260200160405190810160405280939291908181526020018383808284378201915050505050509192919290505050610577565b604051808215151515815260200191505060405180910390f35b81801561020957600080fd5b506102aa600480360381019080803590602001908201803590602001908080601f0160208091040260200160405190810160405280939291908181526020018383808284378201915050505050509192919290803590602001908201803590602001908080601f016020809104026020016040519081016040528093929190818152602001838380828437820191505050505050919291929050505061058d565b6040518082815260200191505060405180910390f35b60006060806000808693508592508351915081835110156102e057825191505b600090505b818110156105235782818151811015156102fb57fe5b9060200101517f010000000000000000000000000000000000000000000000000000000000000090047f0100000000000000000000000000000000000000000000000000000000000000027effffffffffffffffffffffffffffffffffffffffffffffffffffffffffffff1916848281518110151561037657fe5b9060200101517f010000000000000000000000000000000000000000000000000000000000000090047f0100000000000000000000000000000000000000000000000000000000000000027effffffffffffffffffffffffffffffffffffffffffffffffffffffffffffff19161015610411577fffffffffffffffffffffffffffffffffffffffffffffffffffffffffffffffff945061056d565b828181518110151561041f57fe5b9060200101517f010000000000000000000000000000000000000000000000000000000000000090047f0100000000000000000000000000000000000000000000000000000000000000027effffffffffffffffffffffffffffffffffffffffffffffffffffffffffffff1916848281518110151561049a57fe5b9060200101517f010000000000000000000000000000000000000000000000000000000000000090047f0100000000000000000000000000000000000000000000000000000000000000027effffffffffffffffffffffffffffffffffffffffffffffffffffffffffffff19161115610516576001945061056d565b80806001019150506102e5565b825184511015610555577fffffffffffffffffffffffffffffffffffffffffffffffffffffffffffffffff945061056d565b825184511115610568576001945061056d565b600094505b5050505092915050565b60008061058484846102c0565b14905092915050565b60006060806000808693508592506001845110806105ac575060018351105b806105b8575083518351115b156105e5577fffffffffffffffffffffffffffffffffffffffffffffffffffffffffffffffff94506108a2565b6fffffffffffffffffffffffffffffffff84511115610626577fffffffffffffffffffffffffffffffffffffffffffffffffffffffffffffffff94506108a2565b60009150600090505b835181101561087e5782600081518110151561064757fe5b9060200101517f010000000000000000000000000000000000000000000000000000000000000090047f0100000000000000000000000000000000000000000000000000000000000000027effffffffffffffffffffffffffffffffffffffffffffffffffffffffffffff191684828151811015156106c257fe5b9060200101517f010000000000000000000000000000000000000000000000000000000000000090047f0100000000000000000000000000000000000000000000000000000000000000027effffffffffffffffffffffffffffffffffffffffffffffffffffffffffffff1916141561087157600191505b82518210801561074c57508351828201105b801561084d5750828281518110151561076157fe5b9060200101517f010000000000000000000000000000000000000000000000000000000000000090047f0100000000000000000000000000000000000000000000000000000000000000027effffffffffffffffffffffffffffffffffffffffffffffffffffffffffffff1916848383018151811015156107de57fe5b9060200101517f010000000000000000000000000000000000000000000000000000000000000090047f0100000000000000000000000000000000000000000000000000000000000000027effffffffffffffffffffffffffffffffffffffffffffffffffffffffffffff1916145b1561085f57818060010192505061073a565b8251821415610870578094506108a2565b5b808060010191505061062f565b7fffffffffffffffffffffffffffffffffffffffffffffffffffffffffffffffff94505b50505050929150505600a165627a7a72305820d99d1f2857c21172a7b30815afc1dc49ed4c7652d57aeb27b9b83392184adde10029",
  "source": "library StringUtils {\n    /// @dev Does a byte-by-byte lexicographical comparison of two strings.\n    /// @return a negative number if `_a` is smaller, zero if they are equal\n    /// and a positive numbe if `_b` is smaller.\n    function compare(string _a, string _b) returns (int) {\n        bytes memory a = bytes(_a);\n        bytes memory b = bytes(_b);\n        uint minLength = a.length;\n        if (b.length < minLength) minLength = b.length;\n        //@todo unroll the loop into increments of 32 and do full 32 byte comparisons\n        for (uint i = 0; i < minLength; i ++)\n            if (a[i] < b[i])\n                return -1;\n            else if (a[i] > b[i])\n                return 1;\n        if (a.length < b.length)\n            return -1;\n        else if (a.length > b.length)\n            return 1;\n        else\n            return 0;\n    }\n    /// @dev Compares two strings and returns true iff they are equal.\n    function equal(string _a, string _b) returns (bool) {\n        return compare(_a, _b) == 0;\n    }\n    /// @dev Finds the index of the first occurrence of _needle in _haystack\n    function indexOf(string _haystack, string _needle) returns (int)\n    {\n    \tbytes memory h = bytes(_haystack);\n    \tbytes memory n = bytes(_needle);\n    \tif(h.length < 1 || n.length < 1 || (n.length > h.length))\n    \t\treturn -1;\n    \telse if(h.length > (2**128 -1)) // since we have to be able to return -1 (if the char isn't found or input error), this function must return an \"int\" type with a max length of (2^128 - 1)\n    \t\treturn -1;\n    \telse\n    \t{\n    \t\tuint subindex = 0;\n    \t\tfor (uint i = 0; i < h.length; i ++)\n    \t\t{\n    \t\t\tif (h[i] == n[0]) // found the first char of b\n    \t\t\t{\n    \t\t\t\tsubindex = 1;\n    \t\t\t\twhile(subindex < n.length && (i + subindex) < h.length && h[i + subindex] == n[subindex]) // search until the chars don't match or until we reach the end of a or b\n    \t\t\t\t{\n    \t\t\t\t\tsubindex++;\n    \t\t\t\t}\n    \t\t\t\tif(subindex == n.length)\n    \t\t\t\t\treturn int(i);\n    \t\t\t}\n    \t\t}\n    \t\treturn -1;\n    \t}\n    }\n}\n",
  "sourcePath": "/Users/samjeston/Projects/ether-wheel/contracts/StringUtils.sol",
  "compiler": {
    "name": "solc",
    "version": "0.4.24+commit.e67f0147.Emscripten.clang"
  },
  "schemaVersion": "2.0.1",
  "updatedAt": "2018-09-09T10:23:00.980Z"
}